:0400000002002132A7
:03000B00020134BB
:0100130032BA
:03001B0002017669
:20007A0075220375230075249F75250075262575270075280D752900752A99752B00752C45
:20009A0049752D00752E41752F0075301F7531007532017533007534097535007536FF759E
:2000BA0037007538FE753900753A11753B00753CC1753D00753E63753F0075408575410048
:2000DA00754261754300754471754500754643754700754891754900754AC3754B00754C89
:2000FA0083754D00754E73754F0075501375510075523175530075548975550075562C75C1
:1A011A005701755878755900755A00755B00755C00755D0A755E0A02001E17
:03001E000209C212
:20013400C0E0C007C001C0D075D000E5617013E55D255DFF2422F98790C2B0D2B175610100
:200154008011E55E255EFF2422F98790D2B0C2B1756100758AEF758CD8D0D0D001D007D035
:20017400E032C28FB2B785628D85638B327E967F001EBEFF011FEE4F70F722AE82AF837C54
:20019400007D00C3EC9EED64808FF063F08095F0501AC007C006C005C004120181D004D021
:2001B40005D006D0070CBC00DA0D80D722AE82AF838E67EFF5683395E0F569F56A90EA606F
:2001D400E4F5F0120DDEAC82AD838C088D09E5082508F50CE50933F50DE5082508F510E57B
:2001F4000933F511E5102510F510E51133F511850814E509C313C51413C514F51585081872
:20021400E509C313C51813C518C313C51813C518F51985081CE509C423C51CC423541F656A
:200234001CC51C541FC51C651CC51CF51D850820E509C4C520C4540F6520C520540FC520C8
:200254006520C520F521E50C2510F512E50D3511F513E508250CF50EE509350DF50FE5144F
:200274002508F50AE5153509F50BE5182514F516E5193515F517E51C2518F51AE51D3519D4
:20029400F51BE520251CF51EE521351DF51F22AE82AF838F628E6385628D85638BD2ABD2D9
:2002B400AFD28E22C28ED2B722AE82AF83EE4F60078E828F831202A3856582856683120132
:2002D4008F0202B81201C18510658511669000001202BD85146585156690FB041202BD85B1
:2002F400146585156690FB041202BD85146585156690FB041202BD85146585156690FB0426
:200314001202BD85086585096690FA681202BD85146585156690F9B91202BD8514658515A6
:200334006690F9B91202BD85086585096690F9591202BD85086585096690F8891202BD854A
:20035400146585156690FB041202BD85146585156690FB041202BD85146585156690FBCFFA
:200374001202BD85146585156690FB041202BD85146585156690FA681202BD8514658515E1
:200394006690FA681202BD85146585156690F9B91202BD85146585156690F9B91202BD8579
:2003B400086585096690F9591202BD85086585096690F8891202BD850A65850B6690F95981
:2003D4001202BD85146585156690F9B91202BD85086585096690FA681202BD8514658515E6
:2003F4006690F9B91202BD85146585156690F9B91202BD85086585096690F9591202BD8541
:20041400086585096690F8891202BD850A65850B6690F9591202BD85146585156690F9B9A8
:200434001202BD85086585096690FA681202BD85146585156690F9B91202BD851465851585
:200454006690F9B91202BD85086585096690F9591202BD85086585096690F8890202BD12AC
:2004740001C185146585156690FA131202BD85166585176690FA681202BD8518658519666F
:2004940090FA131202BD85186585196690F9B91202BD85146585156690FA131202BD8518B8
:2004B4006585196690F8891202BD85086585096690F8891202BD8514658515669000001275
:2004D40002BD85146585156690FA131202BD85166585176690FA681202BD85186585196612
:2004F40090FA131202BD85186585196690F9B91202BD85146585156690FA131202BD851858
:200514006585196690F8891202BD85086585096690F8891202BD8514658515669000001214
:2005340002BD85146585156690FA131202BD85186585196690FC441202BD851465851566D7
:2005540090FC0C1202BD85186585196690FB901202BD85146585156690FB901202BD8516A7
:200574006585176690FB041202BD85186585196690FA681202BD85186585196690FA131222
:2005940002BD85166585176690FA681202BD85146585156690FA131202BD850A65850B666D
:2005B40090F9591202BD8508658509669000001202BD8514658515669000001202BD851435
:2005D4006585156690F9591202BD85166585176690FB041202BD85186585196690FA681283
:2005F40002BD85186585196690FA131202BD85146585156690FA681202BD851865851966ED
:2006140090F9591202BD85086585096690F9591202BD8514658515669000001202BD851482
:200634006585156690F9591202BD85166585176690FB041202BD85186585196690FA681222
:2006540002BD85186585196690FA131202BD85146585156690FA681202BD8518658519668C
:2006740090F9591202BD85086585096690F9591202BD8514658515669000001202BD851422
:200694006585156690F9591202BD85166585176690FB041202BD85186585196690FA6812C2
:2006B40002BD85146585156690FA131202BD85146585156690F9591202BD85166585176648
:2006D40090FA681202BD85186585196690FA131202BD85146585156690F9591202BD851485
:2006F4006585156690F8171202BD85146585156690FA681202BD850A65850B6690FA1312B7
:2007140002BD8508658509669000001202BD8514658515669000001202BD85146585156662
:2007340090FA131202BD85166585176690FA681202BD85186585196690FA131202BD851861
:200754006585196690F9B91202BD85146585156690FA131202BD85186585196690F8891274
:2007740002BD85086585096690F8891202BD8514658515669000001202BD85146585156681
:2007940090FA131202BD85166585176690FA681202BD85186585196690FA131202BD851801
:2007B4006585196690F9B91202BD85146585156690FA131202BD85186585196690F8171286
:2007D40002BD85086585096690F8171202BD8514658515669000001202BD85146585156693
:2007F40090FA131202BD85166585176690FA681202BD85186585196690FA131202BD8514A5
:200814006585156690F9B91202BD85166585176690FB041202BD85186585196690FA6812E0
:2008340002BD85146585156690FA131202BD85146585156690FA681202BD851465851566BA
:2008540090FA131202BD850A65850B6690F9591202BD8508658509669000001202BD851499
:20087400658515669000001202BD85146585156690FB901202BD85166585176690FCAD1267
:2008940002BD85186585196690FC441202BD85186585196690FC0C1202BD85146585156671
:2008B40090F8891202BD85186585196690FC0C1202BD85086585096690FC0C1202BD8514EB
:2008D400658515669000001202BD85146585156690FB901202BD85166585176690FCAD1207
:2008F40002BD85186585196690FC441202BD85186585196690FC0C1202BD85146585156611
:2009140090F8891202BD85186585196690FC0C1202BD85086585096690FC0C1202BD85148A
:20093400658515669000001202BD85146585156690FB901202BD85166585176690FCAD12A6
:2009540002BD85186585196690FC441202BD85166585176690FCAD1202BD8518658519660B
:2009740090FC441202BD85166585176690FC441202BD85186585196690FC0C1202BD851417
:200994006585156690FB4C1202BD85146585156690FA131202BD85146585156690FC0C1222
:2009B40002BD850A65850B6690FB900202BDD2B7C2AFC2A9C2B0D2B1755A80756000E55AE1
:2009D400F4F59090006412018FE55AC313F55A056074F8256050E77590FF90006412018F69
:2009F400D2B0C2B1755A80756000E55AF4F59090006412018FE55AC313F55A056074F82522
:200A14006050E77590FF75A0FF75B07C758911758AEF758CD8D2AFD2A9D28C755A0175609D
:200A340000E55AF4F58085A05B74FFB55B03020B5190003212018F85A05B74FFB55B03022A
:200A54000CEEE55BF4FF747F5FF55B7401B55B02802A7402B55B02802D7404B55B02803013
:200A74007408B55B0280337410B55B0280367420B55B0280397440B55B46803CAF60740726
:200A9400C39FF55F803AAF60740FC39FF55F8030AF607417C39FF55F8026AF60741FC39FE0
:200AB400F55F801CAF607427C39FF55F8012AF60742FC39FF55F8008AF607437C39FF55FE0
:200AD400AF5F74242FF564AE5F7F0075670A8F688E828F83C007C006120E30AC82D006D098
:200AF400078C5D75670A7568008E828F83120E66AE828E5EE55F75F002A424A2F582740E5D
:200B140035F0F583E493FEA3E493FF8E828F831202A385568285578312018F85A05B74FF6C
:200B3400B55BF890003212018F85A05B74FFB55BEA755D0A755E0A1202B8020CEE85B05B37
:200B5400435B8374FFB55B03020CEE90001E12018F85B05B435B8374FFB55B03020CEEE576
:200B74005BF4F55B535B7CE55B0303543FF55B7401B55B02802A7402B55B0280287404B5E1
:200B94005B0280267408B55B0280247410B55B0280227420B55B0280207440B55B23801E09
:200BB400755C00801C755C088017755C108012755C18800D755C208008755C288003755C95
:200BD40030E560255CF55CAE5C7F0075670A8F688E828F83C007C006120E30AC82D006D081
:200BF400078C5D75670A7568008E828F83120E66AE828E5EE55C255CFF2422F9879085B01E
:200C14005B435B8374FFB55BF590003212018F85B05B435B8374FFB55BE4755D0A755E0A97
:200C34007402B55C0280277406B55C02802C7407B55C0280447409B55C028057740BB55CEE
:200C540002805B740EB55C03020CD1020CEB8558828559831202D8020CEEC374789558747D
:200C7400808559F063F08095F0506FE55824C4F558E55934FFF5598061C3E55894F4E55923
:200C9400648094815054743C2558F558E43559F5598047855882855983120473803CC37466
:200CB400C8955674808557F063F08095F0502BE556249CF556E55734FFF557801DC3E5563E
:200CD40094E8E55764809483501074642556F556E43557F55780031202B8E55AFF25E0F50C
:0F0CF4005A056074F825604003020A35020A2F82
:200EA20024E2D1E366E5E4E64DE8A1E9E3EA12EC30ED3FEE3EEF2EF012F1E8F1B3F272F35C
:200EC20026F4D1F471F509F698F61FF79FF717F889F8F4F859F9B9F913FA68FAB9FA04FBF1
:200EE2004CFB90FBCFFB0CFC44FC7AFCADFCDCFC0AFD34FD5CFD82FDA6FDC8FDE8FD06FEB4
:180F020022FE3DFE56FE6EFE85FE9AFEAEFEC1FED3FEE4FEF4FE03FF8F
:200D0300FB7A20E4FCFDFEFFE5822582F582E58333F583E5F033F5F0EB33FB4017DAE98029
:200D230042E5822582F582E58333F583E5F033F5F0EB33FBEC33FCED33FDEE33FEEF33FF58
:200D4300EC9567ED9568EE9569EF956A4013EC9567FCED9568FDEE9569FEEF956AFF43822A
:050D630001DABEEB22E5
:06005000E478FFF6D8FD84
:20002E007900E94400601B7A00900F1A780175A000E493F2A308B8000205A0D9F4DAF2754F
:02004E00A0FF11
:200D6800E567456860467A01E56725E0F567E568334012F568E5829567E583956840030A60
:200D880080E6C3E56813F568E56713F567C3E5829567F5F0E58395684005F58385F082C3C3
:0D0DA800E56813F568E56713F567DAE122E9
:200056007800E84400600A790175A000E4F309D8FC7800E84400600C7900900001E4F0A3A8
:04007600D8FCD9FADF
:200DB5007A10E4FBFCE58225E0F582E58333F583EB33FBEC33FCEB9567F5F0EC9568400694
:090DD500FCABF0438201DADD22DF
:200DDE00FBC2D530E715D2D5E4C39582F582E49583F583E495F0F5F0E49BFBE56A30E717A2
:200DFE00B2D5E4C39567F567E49568F568E49569F569E4956AF56AEB120D0330D513FBE48B
:120E1E00C39582F582E49583F583E495F0F5F0E49B220E
:0D00210075816A120E9EE582600302001ECA
:200E3000C2D5E58330E70DD2D5E4C39582F582E49583F583E56830E70BE4C39567F567E4DD
:160E50009568F568120D6830D50BE4C39582F582E49583F58322D0
:200E6600C2D5E58330E70DD2D5E4C39582F582E49583F583E56830E70DB2D5E4C39567F569
:180E860067E49568F568120DB530D50BE4C39582F582E49583F5832200
:040E9E007582002237
:00000001FF
